:100000000C9484000C94AC000C94AC000C94AC00E8
:100010000C94AC000C94AC000C94AC000C94AC00B0
:100020000C94AC000C94AC000C94AC000C94AC00A0
:100030000C94AC000C94AC000C94AC000C94AC0090
:100040000C9460020C94AC000C94AC000C94AC00CA
:100050000C94AC000C94AC000C94AC000C94AC0070
:100060000C94AC000C94AC00F1050E060E060E06C6
:100070000E060E060E06B6050E060E060E060E0639
:100080000E06D40530044E046C048A04A804C60489
:10009000E404020520050E060E060E060E060E06E8
:1000A0000E060E063E055C057A0598050000000068
:1000B000240027002A0000000000250028002B0053
:1000C00000000000230026002900040404040404A6
:1000D00004040202020202020303030303030102F7
:1000E00004081020408001020408102001020408C6
:1000F00010200000000800020100000304070000B7
:10010000000000000000160611241FBECFEFD8E04B
:10011000DEBFCDBF11E0A0E0B1E0E6EDFCE002C043
:1001200005900D92A232B107D9F721E0A2E2B1E029
:1001300001C01D92AC39B207E1F710E0C4E8D0E08D
:1001400004C02197FE010E946306C338D107C9F796
:100150000E94AA020C9469060C94000096E0899F04
:10016000D0011124A35DBE4F90967C936E935F9750
:1001700091E091969C93919790919901E0919A01C9
:10018000F0919B01992339F0309751F0811108C00B
:100190008091490104C0309719F05C968C910994C4
:1001A0000895833081F028F4813099F08230A1F0F5
:1001B00008958730A9F08830B9F08430D1F4809167
:1001C00080008F7D03C0809180008F7780938000B6
:1001D000089584B58F7702C084B58F7D84BD08955E
:1001E0008091B0008F7703C08091B0008F7D8093A5
:1001F000B0000895CF93DF93282F30E0F901EE503F
:10020000FF4F8491F901E252FF4FD491F901E65377
:10021000FF4FC491CC2391F081110E94D100EC2FAB
:10022000F0E0EE0FFF1FE054FF4FA591B491EC9169
:10023000ED2381E090E021F480E002C080E090E0D6
:10024000DF91CF910895862F0C94FA001F93CF93DE
:10025000DF93282F30E0F901EE50FF4F8491F90130
:10026000E252FF4FD491F901E653FF4FC491CC23E2
:10027000C9F0162F81110E94D100EC2FF0E0EE0F93
:10028000FF1FEA54FF4FA591B4918FB7F894111155
:1002900005C09C91ED2FE095E92302C0EC91ED2B78
:1002A000EC938FBFDF91CF911F910895862F642F1C
:1002B0000C942601CF93DF9390E0FC01E252FF4FB4
:1002C0002491FC01E653FF4F8491882361F190E073
:1002D000880F991FFC01E455FF4FC591D491FC0193
:1002E000EA54FF4FA591B491611109C09FB7F894EA
:1002F0008881209582238883EC912E230BC0623065
:1003000061F49FB7F8943881822F80958323888386
:10031000EC912E2B2C939FBF06C08FB7F894E881E9
:100320002E2B28838FBFDF91CF910895862F642FC6
:100330000C945A013FB7F8948091270190912801BD
:10034000A0912901B0912A0126B5A89B05C02F3F95
:1003500019F00196A11DB11D3FBFBA2FA92F982FEB
:100360008827820F911DA11DB11DBC01CD0142E066
:10037000660F771F881F991F4A95D1F708958F92AE
:100380009F92AF92BF92CF92DF92EF92FF920E9424
:100390009A014B015C018AE0C82ED12CE12CF12C92
:1003A0000E949A01DC01CB0188199909AA09BB09AD
:1003B000883E9340A105B10558F021E0C21AD1084A
:1003C000E108F10888EE880E83E0981EA11CB11C9C
:1003D000C114D104E104F10419F7FF90EF90DF900C
:1003E000CF90BF90AF909F908F9008952FB7F894C3
:1003F0006091230170912401809125019091260143
:100400002FBF08950F931F93CF93DF93C82FD62F3D
:1004100086E0C89FF0011124E35DFE4F11A2878D95
:1004200090A181309105F1F01CF4892B49F043C073
:1004300082309105A9F10397F1F560E070E034C0D6
:100440006623C9F161E070E08C2F0E94AE000E942B
:10045000F6016093850170938601809387019093E4
:10046000880129C00E94F601009185011091860142
:100470002091870130918801AB01BC01401B510BD9
:10048000620B730B8091970190919801A0E0B0E00E
:1004900084179507A607B70718F462E070E004C058
:1004A000D11109C063E070E08C2FDF91CF911F91D3
:1004B0000F910C94AE00DF91CF911F910F91089591
:1004C0001F920F920FB60F9211242F933F938F9389
:1004D0009F93AF93BF938091230190912401A091AA
:1004E0002501B09126013091220123E0230F2D3701
:1004F00020F40196A11DB11D05C026E8230F029628
:10050000A11DB11D2093220180932301909324010A
:10051000A0932501B0932601809127019091280195
:10052000A0912901B0912A010196A11DB11D8093CE
:10053000270190932801A0932901B0932A01BF912C
:10054000AF919F918F913F912F910F900FBE0F9080
:100550001F901895789484B5826084BD84B58160BD
:1005600084BD85B5826085BD85B5816085BD80917E
:100570006E00816080936E001092810080918100F6
:1005800082608093810080918100816080938100EE
:10059000809180008160809380008091B1008460B0
:1005A0008093B1008091B00081608093B000809111
:1005B0007A00846080937A0080917A0082608093D0
:1005C0007A0080917A00816080937A0080917A002D
:1005D000806880937A001092C100C8E061E08C2F9F
:1005E0000E945A01CF5FCE30C9F7412C512C320105
:1005F0004394CC24CA94DC2C81E0809399010E941E
:10060000F6010091890110918A0120918B013091AE
:100610008C01AB01BC01401B510B620B730B809131
:10062000950190919601A0E0B0E084179507A60788
:10063000B70708F012C1C0E080919301C81760F4B9
:10064000E0918F01F0919001EC0FF11D62E080814B
:100650000E945A01CF5FF0CF912C8091940198169F
:1006600008F05FC0092D10E0E0919101F091920136
:10067000E00FF11F61E080810E945A01E091910139
:10068000F0919201E00FF11F60E080810E9426014D
:10069000D301C201092C04C0880F991FAA1FBB1FD8
:1006A0000A94D2F75C017C01E094F094812C809153
:1006B00093018816F8F4C82DD0E0E0918F01F091F5
:1006C0009001EC0FFD1F80810E94FA002496CC0F50
:1006D000DD1FC35DDE4F892B29F4888199818A292A
:1006E0009B2904C0888199818E219F2199838883C9
:1006F0008394DDCFE0919101F0919201E00FF11F21
:1007000061E080810E942601809191019091920187
:10071000FC01E00FF11F60E080810E945A01939478
:100720009CCFE9E4F1E083819481892B21F410824C
:10073000D282C1821582369681E0E538F80799F7B2
:1007400010E006E080919301181708F052C0F12CD8
:10075000C12FD0E0CC0FDD1FCB5CDE4F2091940188
:10076000F21608F044C0688179810F2C02C076959A
:1007700067950A94E2F761707727129F9001112420
:100780002F0D311DE0918D01F0918E01E20FF31FCD
:10079000A081EDE2F1E080E0458D568D42175307D0
:1007A00011F461701AC08F5F36968A30A9F7672BF3
:1007B000E1F0E9E4F1E080E090E04081411110C017
:1007C000089FF001099FF00D1124E35DFE4FA48FF7
:1007D000368F258F10A2178E61E00E94020205C09D
:1007E000019636968A30910541F7F394B7CF1F5F93
:1007F000A9CF80E090E0C0E0FC01E35DFE4F21A1C5
:100800002111C1E006968C339105B1F70E94F601E3
:100810006093890170938A0180938B0190938C017E
:10082000CC23D9F080914E018823B9F080914C01FE
:1008300090914D01019789F4E09149018E2FEE0FBF
:10084000990BAA0BBB0BFC01B397E232F10508F040
:10085000E5C1EC5CFF4F0C94630610929901DEC178
:1008600010922C0110922B01C0912B01D0912C01E0
:100870001C161D060CF4D2C161E08DE00E94260119
:100880000E94BF0160E08DE00E9426010E94BF012E
:100890002196D0932C01C0932B01E6CF10922C010E
:1008A00010922B01C0912B01D0912C01C230D105A7
:1008B0000CF0B4C161E08DE00E9426010E94BF01EE
:1008C00060E08DE00E9426010E94BF012196D09336
:1008D0002C01C0932B01E6CF10922C0110922B011A
:1008E000C0912B01D0912C01C330D1050CF096C1E1
:1008F00061E08DE00E9426010E94BF0160E08DE072
:100900000E9426010E94BF012196D0932C01C09322
:100910002B01E6CF10922C0110922B01C0912B01DC
:10092000D0912C01C430D1050CF078C161E08DE08C
:100930000E9426010E94BF0160E08DE00E94260116
:100940000E94BF012196D0932C01C0932B01E6CFCA
:1009500010922C0110922B01C0912B01D0912C01EF
:10096000C530D1050CF05AC161E08DE00E9426012E
:100970000E94BF0160E08DE00E9426010E94BF013D
:100980002196D0932C01C0932B01E6CF10922C011D
:1009900010922B01C0912B01D0912C01C630D105B2
:1009A0000CF03CC161E08DE00E9426010E94BF0175
:1009B00060E08DE00E9426010E94BF012196D09345
:1009C0002C01C0932B01E6CF10922C0110922B0129
:1009D000C0912B01D0912C01C730D1050CF01EC164
:1009E00061E08DE00E9426010E94BF0160E08DE081
:1009F0000E9426010E94BF012196D0932C01C09332
:100A00002B01E6CF10922C0110922B01C0912B01EB
:100A1000D0912C01C830D1050CF000C161E08DE00F
:100A20000E9426010E94BF0160E08DE00E94260125
:100A30000E94BF012196D0932C01C0932B01E6CFD9
:100A400010922C0110922B01C0912B01D0912C01FE
:100A5000C930D1050CF0E2C061E08DE00E942601B2
:100A60000E94BF0160E08DE00E9426010E94BF014C
:100A70002196D0932C01C0932B01E6CF10922C012C
:100A800010922B01C0912B01D0912C01CA30D105BD
:100A90000CF0C4C061E08DE00E9426010E94BF01FD
:100AA00060E08DE00E9426010E94BF012196D09354
:100AB0002C01C0932B01E6CF10922C0110922B0138
:100AC000C0912B01D0912C01CB30D1050CF0A6C0E8
:100AD00061E08DE00E9426010E94BF0160E08DE090
:100AE0000E9426010E94BF012196D0932C01C09341
:100AF0002B01E6CF10922C0110922B01C0912B01FB
:100B0000D0912C01CC30D1050CF088C061E08DE093
:100B10000E9426010E94BF0160E08DE00E94260134
:100B20000E94BF012196D0932C01C0932B01E6CFE8
:100B300010922C0110922B01C0912B01D0912C010D
:100B4000CD30D1050CF06AC061E08DE00E94260135
:100B50000E94BF0160E08DE00E9426010E94BF015B
:100B60002196D0932C01C0932B01E6CF10922C013B
:100B700010922B01C0912B01D0912C01CE30D105C8
:100B80000CF04CC061E08DE00E9426010E94BF0184
:100B900060E08DE00E9426010E94BF012196D09363
:100BA0002C01C0932B01E6CF10922C0110922B0147
:100BB000C0912B01D0912C01CF30D1057CF561E0A3
:100BC0008DE00E9426010E94BF0160E08DE00E943E
:100BD00026010E94BF012196D0932C01C0932B01C6
:100BE000E7CF10922C0110922B01C0912B01D091D4
:100BF0002C01C031D10594F461E08DE00E94260102
:100C00000E94BF0160E08DE00E9426010E94BF01AA
:100C10002196D0932C01C0932B01E7CF80E090E088
:100C2000892B09F4E9CC0E940000E6CC10922F0138
:100C30001092330110923201109234018CE191E054
:100C400090932E0180932D0180E090E0FC01E35D04
:100C5000FE4F148E10A2178E11A206968C339105AA
:100C6000A9F784E091E09093900180938F0180E058
:100C700091E0909392018093910184E0809393019D
:100C80008093940188E091E090938E0180938D0190
:100C90008AE090E0909396018093950184EF91E033
:100CA000909398018093970110929B0110929A0162
:100CB0001092890110928A0110928B0110928C017E
:100CC000109299010895EE0FFF1F0590F491E02D09
:060CD0000994F894FFCF27
:100CD600040506070001020331323341343536423A
:100CE600373839432A302344000000009601560164
:020CF6002301D8
:107E0000112484B714BE81FFF0D085E080938100F7
:107E100082E08093C00088E18093C10086E0809377
:107E2000C20080E18093C4008EE0C9D0259A86E02C
:107E300020E33CEF91E0309385002093840096BBD3
:107E4000B09BFECF1D9AA8958150A9F7CC24DD24C4
:107E500088248394B5E0AB2EA1E19A2EF3E0BF2EE7
:107E6000A2D0813461F49FD0082FAFD0023811F036
:107E7000013811F484E001C083E08DD089C08234E0
:107E800011F484E103C0853419F485E0A6D080C0E4
:107E9000853579F488D0E82EFF2485D0082F10E0AE
:107EA000102F00270E291F29000F111F8ED06801E7
:107EB0006FC0863521F484E090D080E0DECF843638
:107EC00009F040C070D06FD0082F6DD080E0C81688
:107ED00080E7D80618F4F601B7BEE895C0E0D1E017
:107EE00062D089930C17E1F7F0E0CF16F0E7DF06D8
:107EF00018F0F601B7BEE89568D007B600FCFDCFD4
:107F0000A601A0E0B1E02C9130E011968C91119780
:107F100090E0982F8827822B932B1296FA010C0160
:107F200087BEE89511244E5F5F4FF1E0A038BF0790
:107F300051F7F601A7BEE89507B600FCFDCF97BE46
:107F4000E89526C08437B1F42ED02DD0F82E2BD052
:107F50003CD0F601EF2C8F010F5F1F4F84911BD097
:107F6000EA94F801C1F70894C11CD11CFA94CF0C13
:107F7000D11C0EC0853739F428D08EE10CD085E9AC
:107F80000AD08FE07ACF813511F488E018D01DD067
:107F900080E101D065CF982F8091C00085FFFCCF94
:107FA0009093C60008958091C00087FFFCCF809118
:107FB000C00084FD01C0A8958091C6000895E0E648
:107FC000F0E098E1908380830895EDDF803219F02E
:107FD00088E0F5DFFFCF84E1DECF1F93182FE3DFCA
:107FE0001150E9F7F2DF1F91089580E0E8DFEE27F6
:047FF000FF270994CA
:027FFE00040479
:0400000300007E007B
:00000001FF
