:100000000C945D000C94E6040C94BF040C948500E1
:100010000C9485000C9485000C9485000C9485004C
:100020000C9485000C9485000C9485000C9485003C
:100030000C9485000C9485000C9485000C9485002C
:100040000C9475040C9485000C9443040C941D04CA
:100050000C9485000C9485000C9485000C9485000C
:100060000C9485000C9485000000000024002700FB
:100070002A0000000000250028002B0004040404CE
:100080000404040402020202020203030303030342
:10009000010204081020408001020408102001021F
:1000A00004081020000000080002010000030407FB
:1000B00000000000000000000D0511241FBECFEF5E
:1000C000D8E0DEBFCDBF11E0A0E0B1E0E6EAFDE0A0
:1000D00002C005900D92AE34B107D9F722E0AEE42C
:1000E000B1E001C01D92AE30B207E1F710E0CDE5FE
:1000F000D0E004C02197FE010E94C606CC35D1078E
:10010000C9F70E9458050C94D1060C940000E091A8
:10011000F601F091F7010190F081E02D682F86EF54
:1001200091E0099480915701909158010196909324
:100130005801809357010895CF92DF92EF92FF927A
:100140000F931F93CF93DF936C017A018B01C0E073
:10015000D0E0CE15DF0589F0D8016D918D01D60173
:10016000ED91FC910190F081E02DC6010995892B5C
:1001700011F47E0102C02196ECCFC701DF91CF912F
:100180001F910F91FF90EF90DF90CF900895FC01A9
:10019000918D828D981761F0828DDF01A80FB11DBE
:1001A0005D968C91928D9F5F9F73928F90E00895E2
:1001B0008FEF9FEF0895FC01918D828D981731F09C
:1001C000828DE80FF11D858D90E008958FEF9FEFF0
:1001D0000895FC01918D228D892F90E0805C9F4FC6
:1001E000821B91098F739927089589E591E00E94F8
:1001F000E90021E0892B09F420E0822F0895FC0119
:10020000848DDF01A80FB11DA35ABF4F2C91848D9F
:1002100090E001968F739927848FA689B7892C93D4
:10022000A089B1898C9180648C93938D848D98136F
:1002300006C00288F389E02D80818F7D8083089538
:10024000EF92FF920F931F93CF93DF93EC0181E026
:10025000888F9B8D8C8D981305C0E889F9898081E2
:1002600085FD24C0F62E0B8D10E00F5F1F4F0F731E
:100270001127E02E8C8DE8120CC00FB607FCFACFC8
:10028000E889F989808185FFF5CFCE010E94FF00C2
:10029000F1CF8B8DFE01E80FF11DE35AFF4FF08285
:1002A0000B8FEA89FB898081806207C0EE89FF8914
:1002B0006083E889F98980818064808381E090E0AF
:1002C000DF91CF911F910F91FF90EF900895CF9301
:1002D000DF93EC01888D8823C9F0EA89FB8980814E
:1002E00085FD05C0A889B9898C9186FD0FC00FB620
:1002F00007FCF5CF808185FFF2CFA889B9898C9161
:1003000085FFEDCFCE010E94FF00E7CFDF91CF91B7
:10031000089580E090E0892B29F00E94F50081117A
:100320000C940000089590E0FC01EC55FF4F3491CF
:10033000FC01E057FF4F2491FC01E458FF4FE4918A
:10034000EE2309F43BC0332339F1333091F038F414
:100350003130A9F0323001F584B58F7D12C03730CD
:1003600091F03830A1F03430B9F4809180008F7D65
:1003700003C0809180008F77809380000DC084B58A
:100380008F7784BD09C08091B0008F7703C08091C2
:10039000B0008F7D8093B000F0E0EE0FFF1FEE58AD
:1003A000FF4FA591B4918FB7F894EC91611103C000
:1003B00020952E2301C02E2B2C938FBF0895CF9311
:1003C000DF9390E0FC01E057FF4F2491FC01E458DB
:1003D000FF4F8491882361F190E0880F991FFC0101
:1003E000E859FF4FC591D491FC01EE58FF4FA591FC
:1003F000B491611109C09FB7F89488812095822338
:100400008883EC912E230BC0623061F49FB7F8947F
:100410003881822F809583238883EC912E2B2C9317
:100420009FBF06C08FB7F894E8812E2B28838FBF1B
:10043000DF91CF9108953FB7F89480915301909147
:100440005401A0915501B091560126B5A89B05C055
:100450002F3F19F00196A11DB11D3FBFBA2FA92F43
:10046000982F8827820F911DA11DB11DBC01CD01C0
:1004700042E0660F771F881F991F4A95D1F70895AC
:100480008F929F92AF92BF92CF92DF92EF92FF92A4
:100490006B017C010E941B024B015C01C114D10461
:1004A000E104F104F1F00E941B02DC01CB01881988
:1004B0009909AA09BB09883E9340A105B10570F3CB
:1004C00021E0C21AD108E108F10888EE880E83E025
:1004D000981EA11CB11CC114D104E104F10419F748
:1004E000DDCFFF90EF90DF90CF90BF90AF909F90C7
:1004F0008F9008950895CF93DF93EC0160E08E8193
:100500000E94930161E08E810E94930160E08E81E0
:100510000E9493018BE891E00197F1F7DF91CF9171
:100520000895CF92DF92EF92FF920F931F93CF9394
:10053000DF937C016C0187E0C80ED11CC0E0D0E0E5
:10054000062F10E0B8010C2E02C0759567950A942D
:10055000E2F76170F60181916F010E94930121968B
:10056000C430D10579F7C701DF91CF911F910F9169
:10057000FF90EF90DF90CF900C947B02CF92DF92B0
:10058000EF92FF920F931F93CF93DF93EC01F62E20
:10059000642F8C810E9493018D818F3F19F060E060
:1005A0000E9493018F850F2D10E084FF25C06E01FE
:1005B00087E0C80ED11CE12CF12CB8010E2C02C032
:1005C000759567950A94E2F76170F60181916F0164
:1005D0000E949301FFEFEF1AFF0A88E0E816F1048A
:1005E00061F7CE01DF91CF911F910F91FF90EF90B6
:1005F000DF90CF900C947B02B80184E075956795ED
:100600008A95E1F7CE010E9491026F2DCE01DF9114
:10061000CF911F910F91FF90EF90DF90CF900C94AE
:10062000910241E00E94BE0281E090E0089540E026
:100630000C94BE02EF92FF920F931F93CF93DF9320
:10064000EC01623018F08F8588608F876B8B1C8A75
:1006500080E48D8B80E18E8B80E58F8B61E08C81D7
:100660000E94DF018D818F3F19F061E00E94DF0160
:1006700061E08E810E94DF017E0187E0E80EF11CBF
:1006800000E010E08F8584FD03C084E090E002C0AC
:1006900088E090E0081719074CF461E0F7018191B8
:1006A0007F010E94DF010F5F1F4FECCF8BE39DE0C6
:1006B0000197F1F760E08C810E94930160E08E81E8
:1006C0000E9493018D818F3F19F060E00E94930199
:1006D0006F8564FD1DC063E0CE010E9491020BE4B2
:1006E00016E4C8010197F1F763E0CE010E94910280
:1006F000C8010197F1F763E0CE010E94910283E502
:1007000092E00197F1F762E0CE010E94910216C0DB
:100710006062CE010E9417038BE496E40197F1F723
:100720006F856062CE010E94170383E592E0019716
:10073000F1F76F856062CE010E9417036F856062DA
:10074000CE010E94170384E0888B6CE0CE010E94EA
:10075000170361E0CE010E9417038BE39FE101972D
:10076000F1F782E0898B66E0CE01DF91CF911F9196
:100770000F91FF90EF900C9417030E94CC06611527
:10078000710579F0FB0101900020E9F73197AF0185
:10079000461B570BDC01ED91FC910280F381E02DAB
:1007A000099480E090E008954F925F926F927F925B
:1007B000EF92FF920F931F93CF93DF93CDB7DEB7E6
:1007C000A1970FB6F894DEBF0FBECDBF7C01FA0132
:1007D000CB0119A2223008F42AE08E010F5D1F4FD1
:1007E000422E512C612C712CBF01A30192010E9459
:1007F000A406F901CA01015011096A3014F4605DC0
:1008000001C0695CD8016C93232B242B252B61F745
:10081000B801C7010E94BF03A1960FB6F894DEBFCE
:100820000FBECDBFDF91CF911F910F91FF90EF9041
:100830007F906F905F904F9008951F920F920FB628
:100840000F9211242F933F934F935F936F937F9356
:100850008F939F93AF93BF93EF93FF9389E591E0BD
:100860000E94FF00FF91EF91BF91AF919F918F91F7
:100870007F916F915F914F913F912F910F900FBE9C
:100880000F901F9018951F920F920FB60F92112480
:100890002F938F939F93EF93FF93E0916901F091D2
:1008A0006A018081E0916F01F091700182FD12C0B8
:1008B0009081809172018F5F8F73209173018217F5
:1008C00051F0E0917201F0E0E75AFE4F958F80936E
:1008D000720101C08081FF91EF919F918F912F91C3
:1008E0000F900FBE0F901F9018951F920F920FB68A
:1008F0000F9211242F933F938F939F93AF93BF93A6
:1009000080914F0190915001A0915101B0915201FD
:1009100030914E0123E0230F2D3720F40196A11DC5
:10092000B11D05C026E8230F0296A11DB11D20931D
:100930004E0180934F0190935001A0935101B093C9
:1009400052018091530190915401A0915501B091B1
:1009500056010196A11DB11D80935301909354013E
:10096000A0935501B0935601BF91AF919F918F9184
:100970003F912F910F900FBE0F901F9018951F92CF
:100980000F920FB60F9211242F933F934F935F93C3
:100990006F937F938F939F93AF93BF93EF93FF9347
:1009A000E0910201F09103010995FF91EF91BF9150
:1009B000AF919F918F917F916F915F914F913F91F7
:1009C0002F910F900FBE0F901F9018951F920F92AE
:1009D0000FB60F9211242F933F934F935F936F9312
:1009E0007F938F939F93AF93BF93EF93FF93E09188
:1009F0000001F09101010995FF91EF91BF91AF9135
:100A00009F918F917F916F915F914F913F912F9126
:100A10000F900FBE0F901F901895E9E5F1E013823B
:100A2000128288EE93E0A0E0B0E084839583A683F1
:100A3000B78388E091E09183808385EC90E095878F
:100A4000848784EC90E09787868780EC90E0918B98
:100A5000808B81EC90E0938B828B82EC90E0958B85
:100A6000848B86EC90E0978B868B118E128E138E82
:100A7000148EE6EFF1E01382128288E191E0918317
:100A8000808388E084838FEF858389E086838AE092
:100A900087838BE080878CE081878DE08287138657
:100AA000148615861686178661E0CF010C941A030A
:100AB000789484B5826084BD84B5816084BD85B539
:100AC000826085BD85B5816085BD80916E00816045
:100AD00080936E00109281008091810082608093EB
:100AE00081008091810081608093810080918000ED
:100AF0008160809380008091B10084608093B10018
:100B00008091B00081608093B00080917A00846011
:100B100080937A0080917A00826080937A0080913D
:100B20007A00816080937A0080917A008068809357
:100B30007A001092C100E0916901F0916A0182E0AF
:100B40008083E0916501F09166011082E091670178
:100B5000F09168018FEC808310927101E0916D013A
:100B6000F0916E0186E08083E0916B01F0916C0161
:100B7000808180618083E0916B01F0916C018081C4
:100B800088608083E0916B01F0916C0180818068C6
:100B90008083E0916B01F0916C0180818F7D808377
:100BA00060E082E00E94DF0182E990E09093010121
:100BB0008093000180916900836080936900E89AC6
:100BC00062E086EF91E00E941A03E1E08091090261
:100BD0008111E0E0E195F0E0EA50FE4F6489606841
:100BE00086EF91E00E9417036CE171E086EF91E0DF
:100BF0000E94BF03E0910902E23010F4E15001C00D
:100C0000E1E0F0E0EA50FE4F6489606886EF91E031
:100C10000E9417036DE271E086EF91E00E94BF032E
:100C200064E670E080E090E00E944002E0910902FA
:100C3000E23010F4E15001C0E1E0F0E0EA50FE4F94
:100C400064896A5F606886EF91E00E941703809173
:100C5000570190915801892B09F473C078946CE284
:100C600071E080E090E00E94400264E371E089E579
:100C700091E00E94BF03409157015091580160E0FC
:100C800070E02AE089E591E00E94D40368E471E015
:100C900089E591E00E94BF0380915701909158012E
:100CA0000A9711F481E40FC0809157019091580187
:100CB0000B9711F482E407C080915701909158017D
:100CC0000C9721F483E40E94870031C08091570182
:100CD000909158010D9711F484E4F5CF809157015C
:100CE000909158010E9711F48AE2EDCF809157014F
:100CF000909158010F9711F480E3E5CF809157014F
:100D000090915801409711F483E2DDCF8091570113
:100D1000909158014197C1F340915701509158016A
:100D200060E070E02AE086EF91E00E94D4036BE47B
:100D300071E086EF91E00E94BF031092580110927B
:100D400057010E94890141CFA1E21A2EAA1BBB1BA9
:100D5000FD010DC0AA1FBB1FEE1FFF1FA217B30787
:100D6000E407F50720F0A21BB30BE40BF50B661F9D
:100D7000771F881F991F1A9469F760957095809561
:100D800090959B01AC01BD01CF010895EE0FFF1FAF
:100D90000590F491E02D099481E090E0F8940C9492
:060DA000D106F894FFCF1C
:100DA6007A027A020000000020019C00E900C700D8
:100DB600DB0067010000000011039C002E2E2E2E82
:100DC6004C692D46692052782E2E2E2E004B455901
:100DD600203D200050756C7365732070657220731A
:0E0DE60065636F6E643A20000D0A0020200045
:00000001FF
